{
  "contractName": "LimitOrder",
  "abi": [
    {
      "inputs": [],
      "name": "deposit",
      "outputs": [],
      "stateMutability": "payable",
      "type": "function",
      "payable": true
    }
  ],
  "bytecode": "0x6080604052732feb1512183545f48f6b9c5b4ebfcaf49cfca6f36000806101000a81548173ffffffffffffffffffffffffffffffffffffffff021916908373ffffffffffffffffffffffffffffffffffffffff160217905550348015606357600080fd5b506061806100726000396000f3fe608060405260043610601c5760003560e01c8063d0e30db0146021575b600080fd5b60276029565b005b56fea2646970667358221220eef2ed3893a31f4118501af24bcceacb73f3a9df2f337b82fea159b710f5ac6364736f6c634300080e0033",
  "deployedBytecode": "0x608060405260043610601c5760003560e01c8063d0e30db0146021575b600080fd5b60276029565b005b56fea2646970667358221220eef2ed3893a31f4118501af24bcceacb73f3a9df2f337b82fea159b710f5ac6364736f6c634300080e0033",
  "immutableReferences": {},
  "source": "pragma solidity 0.8.14;\n\ncontract LimitOrder {\n    address payable accountOwner =\n        payable(0x2fEb1512183545f48f6b9C5b4EbfCaF49CfCa6F3);\n\n    // function withdraw(uint amount, address payable recipient) public {\n    //     require(recipient == accountOwner, \"You don’t own this account!\");\n    //     return recipient.transfer(amount);\n    // }\n\n    function deposit() public payable {}\n}\n",
  "sourcePath": "/Users/jason/education/fintech/project-3/contracts/LimitOrder.sol",
  "compiler": {
    "name": "solc",
    "version": "0.8.14+commit.80d49f37.Emscripten.clang"
  },
  "schemaVersion": "3.4.7",
  "updatedAt": "2022-05-26T00:28:19.789Z",
  "networkType": "ethereum",
  "devdoc": {
    "kind": "dev",
    "methods": {},
    "version": 1
  },
  "userdoc": {
    "kind": "user",
    "methods": {},
    "version": 1
  }
}